{
  "contractName": "readTheChain",
  "abi": [
    {
      "constant": true,
      "inputs": [],
      "name": "currentBlock",
      "outputs": [
        {
          "name": "",
          "type": "uint256"
        }
      ],
      "payable": false,
      "stateMutability": "nonpayable",
      "type": "constructor",
      "signature": "constructor"
    },
    {
      "constant": true,
      "inputs": [],
      "name": "getGreeting",
      "outputs": [
        {
          "name": "",
          "type": "string"
        }
      ],
      "payable": false,
      "stateMutability": "view",
      "type": "function",
      "signature": "0xfe50cc72"
    },
    {
      "constant": false,
      "inputs": [
        {
          "name": "_message",
          "type": "string"
        }
      ],
      "name": "changeGreeting",
      "outputs": [],
      "payable": false,
      "stateMutability": "nonpayable",
      "type": "function",
      "signature": "0xd28c25d4"
    },
    {
      "constant": true,
      "inputs": [],
      "name": "currentBlock",
      "outputs": [
        {
          "name": "",
          "type": "uint256"
        }
      ],
      "payable": false,
      "stateMutability": "view",
      "type": "function",
      "signature": "0xe12ed13c"
    },
    {
      "constant": true,
      "inputs": [],
      "name": "currentDifficulty",
      "outputs": [
        {
          "name": "",
          "type": "uint256"
        }
      ],
      "payable": false,
      "stateMutability": "view",
      "type": "function",
      "signature": "0x5c062d6c"
    }
  ],
  "bytecode": "0x608060405234801561001057600080fd5b506040805190810160405280600581526020017f68656c6c6f0000000000000000000000000000000000000000000000000000008152506000908051906020019061005c929190610062565b50610107565b828054600181600116156101000203166002900490600052602060002090601f016020900481019282601f106100a357805160ff19168380011785556100d1565b828001600101855582156100d1579182015b828111156100d05782518255916020019190600101906100b5565b5b5090506100de91906100e2565b5090565b61010491905b808211156101005760008160009055506001016100e8565b5090565b90565b6103b2806101166000396000f3fe608060405260043610610062576000357c0100000000000000000000000000000000000000000000000000000000900463ffffffff1680635c062d6c14610067578063d28c25d414610092578063e12ed13c1461015a578063fe50cc7214610185575b600080fd5b34801561007357600080fd5b5061007c610215565b6040518082815260200191505060405180910390f35b34801561009e57600080fd5b50610158600480360360208110156100b557600080fd5b81019080803590602001906401000000008111156100d257600080fd5b8201836020820111156100e457600080fd5b8035906020019184600183028401116401000000008311171561010657600080fd5b91908080601f016020809104026020016040519081016040528093929190818152602001838380828437600081840152601f19601f82011690508083019250505050505050919291929050505061021d565b005b34801561016657600080fd5b5061016f610237565b6040518082815260200191505060405180910390f35b34801561019157600080fd5b5061019a61023f565b6040518080602001828103825283818151815260200191508051906020019080838360005b838110156101da5780820151818401526020810190506101bf565b50505050905090810190601f1680156102075780820380516001836020036101000a031916815260200191505b509250505060405180910390f35b600042905090565b80600090805190602001906102339291906102e1565b5050565b600043905090565b606060008054600181600116156101000203166002900480601f0160208091040260200160405190810160405280929190818152602001828054600181600116156101000203166002900480156102d75780601f106102ac576101008083540402835291602001916102d7565b820191906000526020600020905b8154815290600101906020018083116102ba57829003601f168201915b5050505050905090565b828054600181600116156101000203166002900490600052602060002090601f016020900481019282601f1061032257805160ff1916838001178555610350565b82800160010185558215610350579182015b8281111561034f578251825591602001919060010190610334565b5b50905061035d9190610361565b5090565b61038391905b8082111561037f576000816000905550600101610367565b5090565b9056fea165627a7a72305820940421b9822bacb065d731c0b686e20a958b9aaa5b63c531766d88a3e05147790029",
  "source": "pragma solidity ^0.5.0;\n\ncontract readTheChain {\n\n  string message;\n\n  constructor() public {\n    message = \"hello\";\n  }\n\n  function getGreeting() public view returns(string memory) {\n    return message;\n  }\n\n  function changeGreeting(string memory _message) public {\n    message = _message;\n  }\n\n  function currentBlock() public view returns(uint) {\n    return block.number;\n  }\n\n  function currentDifficulty() public view returns(uint) {\n    return block.timestamp;\n  }\n}\n",
  "sourcePath": "/home/josh/Documents/smartContracts/readTheChain/contracts/readTheChain.sol",
  "compiler": {
    "name": "solc",
    "version": "0.5.0+commit.1d4f565a.Emscripten.clang"
  },
  "schemaVersion": "3.0.8",
  "updatedAt": "2019-05-20T18:31:00.010Z",
  "devdoc": {
    "methods": {}
  },
  "userdoc": {
    "methods": {}
  }
}